:020000040000fa
:080000000002040000000000f2
:020000040000fa
:100400008fa520000eff20000e01880000000000d4
:100410000c000700e0bb20000100200011000700d5
:10042000000020000000e000020032000000020096
:1004300000000000cc040200000000000040da00d0
:100440000000fe004440a900200b20000000e00056
:100450000300320000002000a00188004440a800f2
:100460000000060091018800800078000000eb0089
:1004700015003700e280400032a0b4009101ba00bc
:10048000e280400032a0b4009102ba00e280400055
:1004900032a0b4000002eb00472bde00f507b200eb
:1004a000602ce10004003a000059eb008301e900f0
:1004b000fdff3e00040037006128e100010032002a
:1004c0000082eb00040007001101ba000200e00006
:1004d000e8ff3a00000006003159ba008301e90044
:1004e0000c0032002159ba008301e90008003200f3
:1004f0000400e00003003a00e280400032a0b400b3
:10050000f5ff370011d9ba008301e900faff3a007c
:100510008100e800e180400032a0b4000000060045
:100520000040da000000fe00839f68000100e00048
:1005300002003d0060001000e08018000300e000b1
:1005400002003d0060011100e08119000500070074
:100550004f00e00002003b0060001000e080180047
:10056000000006006022b800060220000000d00053
:100570008180d2000482d2008582d2000000a000d7
:100580000202520083825a0003003100020242003c
:1005900083824a000000a1000603e900f3ff3a004d
:1005a00000000600800078003004e000feff3a0002
:0c05b000010050000000e90000000600ff
:020000040000fa
:0200000401f009
:04000000ffff0000fe
:020000040000fa
:0200000401f009
:04000800ffff0000f6
:020000040000fa
:0200000401f009
:04000c00f8ff0000f9
:020000040000fa
:0200000401f009
:040010007dff000070
:020000040000fa
:0200000401f009
:040014007fff00006a
:020000040000fa
:0200000401f009
:04001800ffff0000e6
:020000040000fa
:0200000401f009
:04001c00ddff000004
:020000040000fa
:1000080090020000900200009002000090020000a0
:100018009002000090020000900200009002000090
:10002800900200002809000090020000fc0900006e
:100038009002000090090000900200009002000069
:10004800900200009002000090020000900300005f
:10005800fc0300000e09000090020000900200005e
:100068009002000090020000900200009002000040
:100078009002000090020000c609000090020000f3
:100088009002000090020000900200009002000020
:100098009002000090020000900200009002000010
:1000a8009002000090020000900200009002000000
:1000b80090020000900200009002000090020000f0
:1000c80090020000900200009002000090020000e0
:1000d80090020000900200009002000090020000d0
:1000e80090020000900200009002000090020000c0
:1000f80090020000900200009002000090020000b0
:10010800900200009002000090020000900200009f
:10011800900200009002000090020000900200008f
:10012800900200009002000090020000900200007f
:10013800900200009002000090020000900200006f
:10014800900200009002000090020000900200005f
:10015800900200009002000090020000900200004f
:10016800900200009002000090020000900200003f
:10017800900200009002000090020000900200002f
:10018800900200009002000090020000900200001f
:10019800900200009002000090020000900200000f
:1001a80090020000900200009002000090020000ff
:1001b80090020000900200009002000090020000ef
:1001c80090020000900200009002000090020000df
:1001d80090020000900200009002000090020000cf
:1001e80090020000900200009002000090020000bf
:0801f8009002000090020000db
:020000040000fa
:10020800900200009002000090020000900200009e
:10021800900200009002000090020000900200008e
:10022800900200002809000090020000fc0900006c
:100238009002000090090000900200009002000067
:10024800900200009002000090020000900300005d
:10025800fc0300000e09000090020000900200005c
:10026800900200009002000090020000900200003e
:100278009002000090020000c609000090020000f1
:10028800900200009002000090020000900200001e
:10029800900200009002000090020000900200000e
:1002a80090020000900200009002000090020000fe
:1002b80090020000900200009002000090020000ee
:1002c80090020000900200009002000090020000de
:1002d80090020000900200009002000090020000ce
:1002e80090020000900200009002000090020000be
:1002f80090020000900200009002000090020000ae
:10030800900200009002000090020000900200009d
:10031800900200009002000090020000900200008d
:10032800900200009002000090020000900200007d
:10033800900200009002000090020000900200006d
:10034800900200009002000090020000900200005d
:10035800900200009002000090020000900200004d
:10036800900200009002000090020000900200003d
:10037800900200009002000090020000900200002d
:10038800900200009002000090020000900200001d
:10039800900200009002000090020000900200000d
:1003a80090020000900200009002000090020000fd
:1003b80090020000900200009002000090020000ed
:1003c80090020000900200009002000090020000dd
:1003d80090020000900200009002000090020000cd
:1003e80090020000900200009002000090020000bd
:0803f8009002000090020000d9
:020000040000fa
:1005bc0057410000524e0000494e000047210000f8
:1005cc0020520000585f0000427500006666000073
:1005dc0065720000204a0000757300007420000052
:1005ec004f76000065720000666c00006f770000ab
:1005fc006564000021200000412000004c610000d7
:10060c00726700006572000020520000585f000005
:10061c0042750000666600006572000020690000eb
:10062c0073200000526500007175000069720000b3
:10063c006564000021000000546f00006f20000072
:10064c004c6f00006e6700002054000065780000bd
:10065c007421000020410000204c00006172000059
:10066c006765000072200000545800005f420000d3
:10067c0055460000464500005220000069730000fa
:10068c002052000065710000756900007265000061
:10069c00642100000d0a000000410000204200000f
:1006ac006c6f0000636b0000204a00007573000043
:1006bc00742000004f63000063750000727200002c
:1006cc006564000021200000412000004c61000006
:1006dc00726700006572000020540000585f000033
:1006ec0042550000464600004552000020690000bb
:1006fc0073200000526500007175000069720000e3
:10070c0065640000210d00000a00000020080000b4
:04071c0000000000d9
:020000040000fa
:100720003600f800809fbe00829fbe00849fbe00fe
:10073000869fbe000200fa000000eb00000f780068
:1007400022c2bf00614060000004e00021003200ce
:1007500030118000000f7800b04080009e007800cb
:10076000c1010700b04080008000eb006802070074
:10077000d00020009e0f100009003a00b040800019
:10078000a1002000b8010700b04080008000eb000d
:100790005d010700b0408000a3010700030037009f
:1007a000b04080009e0078005701070080002000c4
:1007b0009e0f100007003a00b04080002200200089
:1007c000c1382800c4010700b0408000210020008b
:1007d0007d0107002222a9008560a9000080fa009f
:1007e0004f03be004f02be004f01be004f00be00cf
:1007f0003600f900004006000000fa008580a900dc
:100800000080fa00004006000000fa0060022000ac
:10081000303a880044c7bf00f043b20044e7b70055
:10082000417420009140780000ceb30000c0600009
:1008300044e7b7000000eb00403a880040a7a90059
:100840001200200081072000a0092000337420003e
:1008500081497800804978008249780012002000a0
:100860006104200070052000237420008149780075
:10087000804978008249780043c7bf000047b20032
:10088000f04f5000fcff3a0042c7bf000042b200e8
:100890000004e000fcff32000080fa0000000600c7
:1008a0000000fa008081200007010700b0408800a6
:1008b000516d20009140780000ceb30000c0600070
:1008c0003040b300d5e6b700416a2000914078007f
:1008d00000ceb30000c060004041b300a4e6b70002
:1008e00021e2a90021a2a9002182a9002162a90078
:1008f0001122200091407800c0cfb30000c06000fa
:1009000021e2b70020e2a90020c2a90020a2a9008c
:100910002082a9002062a9000122200091407800d5
:1009200090cfb30000c0600020e2b7002002a90011
:10093000000f20004011880023e2a90023c2a90073
:1009400023a2a9002362a9002322a9002302a9004f
:1009500022c2bf00f043b20022e2b70022a2a900e7
:100960002282a9002262a9002242a9002222a90013
:100970002202a9008580a9009580a8008560a900b1
:100980009560a80021e2a8002382a8002342a800c5
:100990000080fa00000006000200fa00800020003b
:1009a000303a880044c7bf00f043b20044e7b700c4
:1009b000417420009140780000ceb30000c0600078
:1009c00044e7b7003200200081072000a009200082
:1009d000337420008149780080497800824978008a
:1009e0001200200061042000700520002374200004
:1009f00081497800804978008249780043c7bf0068
:100a000002c7b3008240600000c3b30080cf500033
:100a1000faff3a0042c7bf000042b2000004e00003
:100a2000fcff3200011680000010200000807000e2
:100a300000168800401680000040a0004016880084
:100a400098000700e16820009140780000ceb300d4
:100a500000c060000004a0008ee6b700f16820002e
:100a60009140780000ceb30000c060000014a000e8
:100a70008fe6b700416920009140780000ceb300b6
:100a800000c060003040b30094e6b7007c0007006f
:100a9000ea0207002d030700230307000000eb0014
:100aa00030408800f90207000d03070056ff0700d9
:100ab0007bff07000028a8000000eb00000f780073
:100ac000010037001e0fe800703e20009e0f10004e
:100ad000fcff360019003700cac2bf00704060003a
:100ae0000004e00014003a0002003700a0002000db
:100af00051000700cac2bf00704060000004e0005f
:100b0000faff3200004080000000d1006140600028
:100b10000004a200614060000080fb0061006000f2
:100b20000001400001408000d0ff2f0000806000e5
:100b3000020070000040880000000000c3c2bf0037
:100b4000614060000004e000e3ff3a00020037006b
:100b5000a000200038000700c3c2bf006140600051
:100b60000004e000faff3200501680000000d100bf
:100b70006700600010408800004080006200600054
:100b80000000e000070032001040800080004000bc
:100b9000e0a120000080400010007800a00e880036
:100ba000060037001040800080004000e0a22000d6
:100bb0000080400010007800a00e880070772000b0
:100bc000400e88000008a80013e1a80010c0b30080
:100bd00008e8b700400620001700070011003700a2
:100be000c3c2bf00614060000004e0000c003a0096
:100bf00000702000400e88000000eb00a00e88006e
:100c00000008a90002003700a00020000a00070029
:100c1000c3c2bf00614060000004e000faff320080
:100c20000000000000408000610060000000e00063
:100c3000ebff3a00c1ff37000400fa0010079800ec
:100c4000070037000000eb00000f780001003700bc
:100c50001e0fe800301f20009e0f1000fcff360022
:100c60001e0090000000e900100798001e00900090
:100c7000e10f4000f3ff3a000080fa000000060098
:100c80000000fa0021742000620420007305200097
:100c9000824878008348780042c7a8000080fa00a4
:100ca000000006000000fa00217420006204200009
:100cb00073052000824878008348780042c7a90065
:100cc0000080fa00000006000400fa0010079800f7
:100cd0001e009000000f78009e0078000000eb00de
:100ce00080009a009e0078000000eb0090009a00bf
:100cf0009e0078000000eb00a0009a001e00780023
:100d00000080fa00000006000800fa0010079800b2
:100d1000210798001e009000000f78001e00780048
:100d2000000092009e007800000040002e0190001c
:100d300002b078001e007800000092008000e800f9
:100d40001e00780001009a001e00780080009200ca
:100d500000082000808f500006003a00e12d280096
:100d60001e007800860007000080eb003007980026
:100d7000020037000001eb00320798003e009000af
:100d80000080fa00000006000400fa001007980036
:100d90001e009000000f78001e00780000009200f6
:100da0000000e000050032001e0078000000920004
:100db0008000e9001e00780001009a000000eb00ae
:100dc0000080fa00000006000800fa0020079800e2
:100dd000310798002e009000100798000000eb00eb
:100de000000f78000a0037001e00900000009200fb
:100df0000000e000090032001e0090000000920098
:100e00008000e9001e00900001009a001e0fe8001b
:100e10003e0090009e0f1000f3ff35000000eb0035
:100e20000080fa00000006000400fa001007980095
:100e30001e009000000f78009e0078000000eb007c
:100e400080009a000080fa00000006000400fa000a
:100e5000100798001e009000000f78001e00780018
:100e60000080fa00000006000600fa001007980053
:100e7000210798001e009000000f7800110020004c
:100e80001e0078006d0007001e0078002000920010
:100e900002082000110009000200d8008000fd00b7
:100ea0009e007800000040000010b0002e0190006d
:100eb00002b078001e007800200092008000e80058
:100ec0001e00780021009a009580a8000000eb0029
:100ed0000080fa00000006000a00fa0020079800cf
:100ee00031079800420798002e00900010079800e4
:100ef000ce0090001e009000500007000000eb00a4
:100f0000000f7800170037001e00900020009200ac
:100f100002082000110009000200d8008000fd0036
:100f2000800178001e007800800078003e0090006c
:100f300000804000104078000001fb009e009000ff
:100f4000038041000010b00002b078001e00900045
:100f5000200092008000e8001e00900021009a000e
:100f60001e0fe8004e0090009e0f1000e6ff3500b7
:100f70009580a8000000eb000080fa000000060049
:100f80000a00fa0020079800310798002e00900010
:100f9000100798003e009000000f78003e0090007f
:100fa00080fd0700800078001e00900023000700ed
:100fb000e20f400017003a000080eb004007980065
:100fc0001b0037001e009000200092000208200045
:100fd000110009000200d8008000fd0080007800a8
:100fe0001e007800104078008001fb001e01900078
:100ff000018040000010b000033079001e00900016
:10100000200092008000e8001e00900021009a005d
:101010001e0fe8001e007800104078000004e00079
:10102000e8ff3a009580a8000000eb004007980018
:101030004e0090000080fa00000006000800fa0050
:1010400010079800210798001e009000000f7800fc
:10105000ae00900000082000808f50000600340091
:10106000213228001e007800c5ff0700e0ff2f0096
:1010700030079800230037001e007800a00092007f
:101080002e009000808040001e007800100092002a
:101090000008b000808f5000180035001e00780056
:1010a0002000920041032000808040001e00780054
:1010b000100092000008b000808f5000f7ff32004f
:1010c000313528001e007800adff07001e007800b3
:1010d000a00092002e009000808040001e0078004a
:1010e000100092000008b000808f5000f7ff32001f
:1010f0000080eb0030079800020037000000eb0092
:10110000300798003e0090000080fa0000000600c2
:101110000800fa0020079800310798002e00900080
:10112000100798003e009000640f10001d0037006b
:101130001e009000100092009e00900000004000f1
:101140000010b00060807800201188001e00900020
:10115000100092008000e8001e00900011009a002c
:101160001e00900090009200f0072000808f500039
:101170000c0034001e0090009000920000f82f0038
:10118000808040001e00900011009a001e00900018
:10119000a000920000f82f00808040001e00900008
:1011a00021009a001e0fe9001e00e0000600350035
:1011b0001e009000900092001e00900020009200ff
:1011c000808f5000daff35000000eb000080fa004d
:1011d000000006000600fa00100798001e009000ac
:1011e000000f78001e007800900092001e0078002a
:1011f00020009200808f500003003a001000200071
:1012000020079800020037000000eb00200798003c
:101210002e0090000080fa0000000600801f780079
:101220000000fa0000408000610060000000e00063
:1012300003003200001880004200dd009052880058
:1012400085a0a9000080fa004f0078000040060049
:10125000809fbe000200fa008420a9005016800082
:101260000000d1006700600010408800004080004e
:10127000620060000000e0000900320010408000c1
:1012800080004000e0a120000080400010007800b5
:10129000a00e880050002000000f780008003700e2
:1012a0001040800080004000e0a22000008040004c
:1012b00010007800a00e880040002000000f780089
:1012c0009e00780010408000808f500011003a008e
:1012d00008c8bf000040e80008e8b70008c8bf0021
:1012e000e64f50000b003a00500880002040880074
:1012f0000000eb0050088800314080002040800052
:10130000008040000000d1003040880010c0b300d1
:1013100008e8b7000080fa004f00be000040060059
:10132000809fbe000000fa0084a0a9005016800033
:101330000000d1006700600010408800004080007d
:10134000620060000000e0000700320010408000f2
:1013500080004000e0a120000080400010007800e4
:10136000a00e88000600370010408000800040007a
:10137000e0a220000080400010007800a00e88004d
:101380000080fa004f00be0000400600809fbe00b3
:101390000000fa0086c0a900501680000000d100ad
:1013a000670060001040880000408000620060001c
:1013b0000000e00007003200104080008000400084
:1013c000e0a120000080400010007800a00e8800fe
:1013d000060037001040800080004000e0a220009e
:1013e0000080400010007800a00e88000080fa0005
:1013f0004f00be00004006003600f800809fbe008f
:10140000829fbe00849fbe00869fbe00889fbe0054
:101410000000fa00304080006101b80060342c0008
:101420003102200040fc0700a05288009152800049
:10143000a052800000805000b0528800705280009e
:101440006104b800b05280006103b90088007800e0
:1014500006007800000ab80007c0b900050178004e
:101460000001410009b0b90000014100820278008a
:101470004129dd004f20de0000007100cfa8de0012
:10148000cf80de00305288004152880080528000b8
:101490006104b800b05280006103b9008800780090
:1014a00006007800000ab80007c0b90005017800fe
:1014b0000001410009b0b90000014100820278003a
:1014c0004129dd004f20de0000007100cfa8de00c2
:1014d0006101b900105280002152800002004000da
:1014e00083804800f051880001528800f05180004c
:1014f00001528000e00f5000e08f580004003d00d2
:101500006000b800f0518800015288000b003700dd
:10151000f251800003528000f0ff270001002000fc
:10152000800f5100818f590004003400f0ff270024
:1015300001002000f051880001528800f051800025
:10154000015280001052880021528800f251800020
:10155000035280003052800041528000020040005f
:1015600083804800505288006152880050528000a9
:1015700061528000e00f5000e08f580004003d00f1
:101580006000b80050528800615288000b0037009c
:101590005252800063528000f0ff270001002000bb
:1015a000800f5100818f590004003400f0ff2700a4
:1015b000010020005052880061528800200e8000f7
:1015c000000040006104b80056528000675280005d
:1015d0008800780006007800000ab80007c0b9004b
:1015e000050178000001410009b0b9000001410087
:1015f000820278004129dd004f20de0000007100ea
:10160000cfa8de00b00e8800b00e8000c00e8800ab
:10161000b00e8000d00e88008460a9000080fa001f
:101620004f04be004f03be004f02be004f01be007c
:101630004f00be003600f900004006000000fa002e
:101640000080eb00601988002d03a900c00620006f
:10165000001988002143a9000000eb001019880040
:10166000f0322000201988000000eb00801988006b
:10167000800020004019880085a0a90095a0a8003e
:1016800021e3a8000080fa00000006000000fa0034
:10169000f00f2000200e880000702000400e88000f
:1016a0000000eb00a00e880040062000b00e88006d
:1016b00040062000c00e880040062000d00e8800a2
:1016c000200e8000300e880000f02000500e8800b0
:1016d00000002800000e88000080fa0000000600cc
:1016e0000000fa0040168000e000b30040168800b9
:1016f00010002000100a880010002000300a880026
:1017000010002000d00a88008420a90084a0a9002d
:1017100086c0a9009420a80094a0a80096c0a800a4
:101720000080fa00000006000000fa00000320001c
:10173000900888000000eb00500888000080eb0053
:10174000700888000080fa00000006000000fa001f
:1017500000022800200888000000eb000008880034
:10176000c00920001008880005e1a8008460a900d5
:0c1770009460a8000080fa000000060051
:020000040000fa
:10177c003e0a0000140000000200000000000000ff
:10178c00000000000000000000000000000000004d
:10179c0000204e00d0070000520a00000600000096
:1017ac00000000001e0a00002000000002000000e3
:1017bc0000001000020420000402010008100800c0
:1017cc0001200000000000000120100008010800aa
:1017dc0004020400201002000000000000080000b9
:0c17ec001e0200000000000000000000d1
:00000001FF
