:020000040000fa
:080000000002040000000000f2
:020000040000fa
:100400000f85200000ff2000000188000000000090
:100410000c000700607020000100200011000700a0
:10042000000020000000e000020032000000020096
:1004300000000000d2040200000000000040da00ca
:100440000000fe004440a900000020000000e00081
:100450000300320000002000a00188004440a800f2
:100460000000060091018800800078000000eb0089
:1004700015003700e280400032a0b4009101ba00bc
:10048000e280400032a0b4009102ba00e280400055
:1004900032a0b4000002eb00472bde00f507b200eb
:1004a000602ce10004003a000059eb008301e900f0
:1004b000fdff3e00040037006128e100010032002a
:1004c0000082eb00040007001101ba000200e00006
:1004d000e8ff3a00000006003159ba008301e90044
:1004e0000c0032002159ba008301e90008003200f3
:1004f0000400e00003003a00e280400032a0b400b3
:10050000f5ff370011d9ba008301e900faff3a007c
:100510008100e800e180400032a0b4000000060045
:10052000839f68000100e00002003d0060001000b1
:10053000e08018000300e00002003d0060011100af
:10054000e0811900050007004f00e00002003b00b9
:1005500060001000e0801800000006006022b80073
:10056000060220000000d0008180d2000482d20068
:100570008582d2000000a0000202520083825a004d
:10058000030031000202420083824a000000a10001
:0c0590000603e900f3ff3a00000006003b
:020000040000fa
:0200000401f009
:04000000ffff0000fe
:020000040000fa
:0200000401f009
:04000800ffff0000f6
:020000040000fa
:0200000401f009
:04000c00f8ff0000f9
:020000040000fa
:0200000401f009
:040010007dff000070
:020000040000fa
:0200000401f009
:040014007fff00006a
:020000040000fa
:0200000401f009
:04001800ffff0000e6
:020000040000fa
:0200000401f009
:04001c00ddff000004
:020000040000fa
:1000080044070000440700004407000044070000bc
:1000180044070000440700004407000044070000ac
:1000280044070000e802000044070000bc03000089
:100038004407000050030000440700004407000084
:10004800440700004407000044070000440700007c
:1000580044070000ce0200004407000044070000e7
:10006800440700004407000044070000440700005c
:10007800440700004407000086030000440700000e
:10008800440700004407000044070000440700003c
:10009800440700004407000044070000440700002c
:1000a800440700004407000044070000440700001c
:1000b800440700004407000044070000440700000c
:1000c80044070000440700004407000044070000fc
:1000d80044070000440700004407000044070000ec
:1000e80044070000440700004407000044070000dc
:1000f80044070000440700004407000044070000cc
:1001080044070000440700004407000044070000bb
:1001180044070000440700004407000044070000ab
:10012800440700004407000044070000440700009b
:10013800440700004407000044070000440700008b
:10014800440700004407000044070000440700007b
:10015800440700004407000044070000440700006b
:10016800440700004407000044070000440700005b
:10017800440700004407000044070000440700004b
:10018800440700004407000044070000440700003b
:10019800440700004407000044070000440700002b
:1001a800440700004407000044070000440700001b
:1001b800440700004407000044070000440700000b
:1001c80044070000440700004407000044070000fb
:1001d80044070000440700004407000044070000eb
:1001e80044070000440700004407000044070000db
:0801f800440700004407000069
:020000040000fa
:1002080044070000440700004407000044070000ba
:1002180044070000440700004407000044070000aa
:1002280044070000e802000044070000bc03000087
:100238004407000050030000440700004407000082
:10024800440700004407000044070000440700007a
:1002580044070000ce0200004407000044070000e5
:10026800440700004407000044070000440700005a
:10027800440700004407000086030000440700000c
:10028800440700004407000044070000440700003a
:10029800440700004407000044070000440700002a
:1002a800440700004407000044070000440700001a
:1002b800440700004407000044070000440700000a
:1002c80044070000440700004407000044070000fa
:1002d80044070000440700004407000044070000ea
:1002e80044070000440700004407000044070000da
:1002f80044070000440700004407000044070000ca
:1003080044070000440700004407000044070000b9
:1003180044070000440700004407000044070000a9
:100328004407000044070000440700004407000099
:100338004407000044070000440700004407000089
:100348004407000044070000440700004407000079
:100358004407000044070000440700004407000069
:100368004407000044070000440700004407000059
:100378004407000044070000440700004407000049
:100388004407000044070000440700004407000039
:100398004407000044070000440700004407000029
:1003a8004407000044070000440700004407000019
:1003b8004407000044070000440700004407000009
:1003c80044070000440700004407000044070000f9
:1003d80044070000440700004407000044070000e9
:1003e80044070000440700004407000044070000d9
:0803f800440700004407000067
:020000040000fa
:10059c00801f78000000fa000041800061006000bc
:1005ac000000e00003003200001880004200dd0073
:1005bc005042880085a0a9000080fa004f00780006
:1005cc0000400600809fbe000200fa008420a900b3
:1005dc00501680000000d1006700600010418800b8
:1005ec0000418000620060000000e0000900320061
:1005fc0010418000800040000080200000804000fe
:10060c0010007800a00e880050002000000f780029
:10061c00080037001041800080004000008120005d
:10062c000080400010007800a00e880040002000e0
:10063c00000f78009e00780010418000808f5000e1
:10064c0011003a0028c8bf000040e80028e8b700b5
:10065c0028c8bf00e64f50000b003a00500880003d
:10066c00204188000000eb005008880031418000d8
:10067c0020418000008040000000d1003041880003
:10068c0010c0b30028e8b7000080fa004f00be008d
:10069c0000400600809fbe000000fa0084a0a90064
:1006ac00501680000000d1006700600010418800e7
:1006bc0000418000620060000000e0000700320092
:1006cc00104180008000400000802000008040002d
:1006dc0010007800a00e8800060037001041800042
:1006ec008000400000812000008040001000780055
:1006fc00a00e88000080fa004f00be0000400600eb
:10070c00809fbe000000fa0086c0a9005016800031
:10071c000000d1006700600010418800004180009b
:10072c00620060000000e000070032001041800011
:10073c008000400000802000008040001000780005
:10074c00a00e880006003700104180008000400099
:10075c00008120000080400010007800a00e88006e
:10076c000080fa004f00be00004006003600f80082
:10077c00809fbe00829fbe00849fbe00869fbe00ed
:10078c00889fbe000000fa00304180006101b80073
:10079c0060342c00310220005eff070060428800ac
:1007ac0051428000604280000080500070428800fe
:1007bc00304280006104b800704280006101b900d1
:1007cc000243b80003c0b9000702780000024200df
:1007dc000990b90000024200840378004139dd0021
:1007ec004f30de0000007100cfb8de00cf80de009d
:1007fc00f041880001428800404280006104b8004a
:10080c00704280006101b9000243b80003c0b90016
:10081c0007027800000242000990b9000002420071
:10082c00840378004139dd004f30de000000710098
:10083c00cfb8de006101b900d0418000e1418000f9
:10084c000200400083804800b0418800c14188000c
:10085c00b0418000c1418000e00f5000e08f580093
:10086c0004003d006000b800b0418800c141880020
:10087c000b003700b2418000c3418000f0ff27001d
:10088c0001002000800f5100818f590004003400ba
:10089c00f0ff270001002000b0418800c141880012
:1008ac00b0418000c1418000d0418800e141880006
:1008bc00b2418000c3418000f041800001428000c1
:1008cc0002004000838048001042880021428800ca
:1008dc001042800021428000e00f5000e08f580051
:1008ec0004003d006000b8001042880021428800de
:1008fc000b0037001242800023428000f0ff2700db
:10090c0001002000800f5100818f59000400340039
:10091c00f0ff2700010020001042880021428800cf
:10092c00200e8000000040006103b80012428000dd
:10093c00234280000234b80003b0b90009027800e9
:10094c00000242000790b9000002420084047800c3
:10095c004149dd004f40de0000007100cfc8de00d1
:10096c00b00e8800b00e8000c00e8800b00e800063
:10097c00d00e88008460a9000080fa004f04be00ed
:10098c004f03be004f02be004f01be004f00be0021
:10099c003600f900004006000200fa00800020003a
:1009ac00303a880044c7bf00f043b20044e7b700b8
:1009bc00417420009140780000ceb30000c060006c
:1009cc0044e7b7003200200081072000a009200076
:1009dc00337420008149780080497800824978007e
:1009ec0012002000610420007005200023742000f8
:1009fc0081497800804978008249780043c7bf005c
:100a0c0002c7b3008240600000c3b30080cf500027
:100a1c00faff3a0042c7bf000042b2000004e000f7
:100a2c00fcff3200011680000010200000807000d6
:100a3c0000168800401680000040a0004016880078
:100a4c0096000700e16820009140780000ceb300ca
:100a5c0000c060000004a0008ee6b700f168200022
:100a6c009140780000ceb30000c060000014a000dc
:100a7c008fe6b700416920009140780000ceb300aa
:100a8c0000c060003040b30094e6b7007a00070065
:100a9c008b000700ce000700c40007000000eb002d
:100aac00304188009a000700ae0007002028a800fb
:100abc000000eb00000f7800010037001e0fe8006b
:100acc00703e20009e0f1000fcff3600190037000e
:100adc00cac2bf00704060000004e00014003a007d
:100aec0002003700a000200051000700cac2bf005e
:100afc00704060000004e000faff3200004180000a
:100b0c000000d100614060000004a2006140600060
:100b1c000080fb006100600000014000014180008a
:100b2c00d0ff2f00008060000200700000418800a0
:100b3c0000000000c3c2bf00614060000004e00080
:100b4c00e3ff3a0002003700a00020003800070045
:100b5c00c3c2bf00614060000004e000faff320035
:100b6c00501680000000d100670060001041880022
:100b7c0000418000620060000000e00007003200cd
:100b8c001041800080004000008020000080400068
:100b9c0010007800a00e880006003700104180007d
:100bac008000400000812000008040001000780090
:100bbc00a00e880070772000400e88002008a80046
:100bcc0013e1a80010c0b30028e8b70040062000cd
:100bdc001700070011003700c3c2bf00614060005e
:100bec000004e0000c003a0000702000400e880069
:100bfc000000eb00a00e88002008a90002003700be
:100c0c00a00020000a000700c3c2bf0061406000c2
:100c1c000004e000faff32000000000000418000f8
:100c2c00610060000000e000ebff3a00c1ff3700fc
:100c3c000400fa0010079800070037000000eb00d2
:100c4c00000f7800010037001e0fe800301f200055
:100c5c009e0f1000fcff36001e0090000000e90003
:100c6c00100798001e009000e10f4000f3ff3a00bf
:100c7c000080fa00000006000000fa002174200039
:100c8c0062042000730520008248780083487800b5
:100c9c0042c7a8000080fa00000006000000fa001d
:100cac002174200062042000730520008248780023
:100cbc008348780042c7a9000080fa0000000600b3
:100ccc000000fa000080eb00601988002d03a900d9
:100cdc00c0062000001988002143a9000000eb0089
:100cec0010198800f0322000201988000000eb0059
:100cfc0080198800800020004019880085a0a90078
:100d0c0095a0a80021e3a8000080fa0000000600ce
:100d1c000000fa00f00f2000200e88000070200068
:100d2c00400e88000000eb00a00e8800400620005a
:100d3c00b00e880040062000c00e8800400620003f
:100d4c00d00e8800200e8000300e880000f02000ad
:100d5c00500e880000002800000e88000080fa0069
:100d6c00000006000000fa0040168000e000b3000e
:100d7c004016880010002000100a88001000200087
:100d8c00300a880010002000d00a88008420a900b6
:100d9c0084a0a90086c0a9009420a80094a0a80053
:100dac0096c0a8000080fa00000006000000fa00bf
:100dbc0000032000900888000000eb005008880019
:100dcc000080eb00700888000080fa00000006002c
:100ddc000000fa0000022800200888000000eb0048
:100dec0000088800c00920001008880005e1a80050
:100dfc008460a9009460a8000080fa00000006003e
:020000040000fa
:100e0c003608000014000000020000000000000082
:100e1c0000000000000000000000000000000000c6
:100e2c0000204e00d00700004a0800000600000019
:100e3c00000000000008000020000000020000007c
:100e4c000000100002042000040201000810080039
:100e5c000120000000000000012010000801080023
:100e6c000402040020100200000000002008000012
:0c0e7c0016000000000000000000000054
:020000040000fa
:040e88000000fe0068
:00000001FF
