:020000040000fa
:080000000002040000000000f2
:020000040000fa
:100400002fb720000eff20000e0188000000000022
:100410000c000700207521000100200011000700da
:10042000000020000000e000020032000000020096
:1004300000000000c2100200000000000040da00ce
:100440000000fe004440a900e02f20000000e00072
:100450000300320000002000a00188004440a800f2
:100460000000060091018800800078000000eb0089
:1004700015003700e280400032a0b4009101ba00bc
:10048000e280400032a0b4009102ba00e280400055
:1004900032a0b4000002eb00472bde00f507b200eb
:1004a000602ce10004003a000059eb008301e900f0
:1004b000fdff3e00040037006128e100010032002a
:1004c0000082eb00040007001101ba000200e00006
:1004d000e8ff3a00000006003159ba008301e90044
:1004e0000c0032002159ba008301e90008003200f3
:1004f0000400e00003003a00e280400032a0b400b3
:10050000f5ff370011d9ba008301e900faff3a007c
:100510008100e800e180400032a0b4000000060045
:1005200000000000000000000040da000000fe00b3
:10053000839f68000100e00002003d0060001000a1
:10054000e08018000300e00002003d00600111009f
:10055000e0811900050007004f00e00002003b00a9
:1005600060001000e0801800000006006022b80063
:10057000060220000000d0008180d2000482d20058
:100580008582d2000000a0000202520083825a003d
:10059000030031000202420083824a000000a100f1
:1005a0000603e900f3ff3a00000006008001eb00bb
:1005b00002003700817178008301e800828f5100ca
:1005c000fcff3a000000060010417800b1415100e4
:1005d00003003a000000e8000204e000faff3a00dd
:1005e0000300fb0000000600800178000001780095
:1005f00031407800005978000004e000fcff3a0028
:100600000300780000000600800078003004e0005d
:10061000feff3a00010050000000e9000000060063
:100620000c00fa00889fbe0000047800cfb097004d
:10063000f0ff2700d0bf9f008004eb0099bf9f0010
:1006400088bf9f00a8bf9f00200c2000b0bf9f0064
:100650007881570070805700080007000fb8970096
:10066000094878000fb89700080450000800780087
:100670004f04be000080fa0000000600fe8747001d
:10068000889fbe008a9fbe008c9fbe008e1f780090
:10069000f0b79f000107780082bf9f000000eb00c9
:1006a000a0b79f009f0237008006eb0050c2b30046
:1006b00080cf5000090032000100fb00ffb097001e
:1006c000a3020700e10f400096023200afb097008e
:1006d0008100e800a1b79f00920237009e40780099
:1006e000d0c2b30080cf50000c00320007003c00a5
:1006f0006d40500080cf50000a0032006b40400037
:1007000080cf50000e003a000800370000c3b3004d
:1007100080cf50000a003a00060037000d30a000dc
:10072000050037000d00a000030037000d10a000e9
:10073000010037000d20a0000e07e800e7ff37009a
:100740000d18a300010032000d00a1000d38a30018
:10075000010032000d20a1000100fb0002fd2f006e
:1007600002004000e90f50000e003e000002eb00c6
:10077000c4b79f0082017800cfb297006a28b90001
:100780001e01fb000001410003014100c2b79f00b0
:100790005e00fb0003004000e90f50000b003e002c
:1007a000f5ff37000006eb00ccb79f00a0c2b300f6
:1007b00080cf500005003a000fb89700c0007800c5
:1007c00080bf9f00c1b79f000e07e8000001eb004b
:1007d000b2b79f00e0c2b3009e4f100018003a006d
:1007e0000de0a0008e00e80064405000914f100022
:1007f00002003200010778000c0037000fba9700a2
:10080000c402780084bf9f00b5b79f000e87e80040
:100810000b0037003fb697006a60b9000000410046
:1008200003004000b0b79f000e07e8001e01fb0068
:1008300003fd2f0003004100e90f5000f5ff3600d3
:10084000be407800e1d79f00c0c6b30080cf500003
:10085000220032000f003c006940500080cf500061
:100860007700320004003c000104e0003102320055
:100870006b4050000f00370040c6b30080cf5000df
:10088000930032006540400080cf50008b003a005a
:100890008f00370030c7b30080cf50001a003200fd
:1008a00007003c006440500080cf5000110032002f
:1008b0000040e80080cf500080003a000f00370071
:1008c00050c7b30080cf500080003200634040002a
:1008d00080cf500079003a0009003700000028005e
:1008e0000d48a30001003a00000120008086760038
:1008f000d3ff37000d60a000750037000d50a00039
:100900000d70a000720037008fb89700410078008a
:1009100081bf9f00000478000000e00001003a0061
:10092000a8b120008004eb00010037008104e8003a
:1009300089007800088044001004e000fbff3a00c2
:100940003fb197000200e00003003200890f510020
:1009500001003100820478000002eb00e4af9f0048
:10096000cfb29700898f52000200360009805200f2
:10097000e0af9f004368de00e10660001b003a0024
:100980000d06780009003700ffb097000002200034
:10099000ef010700e10f4000030032002fb0970085
:1009a0000000e800a0b79f000c06e800efa8970041
:1009b000810f5600f4ff3a000081eb00e2af9f0088
:1009c0000a003700880078003100fb00010478003d
:1009d000ffb09700de010700e10f40000300320086
:1009e0002fb297000402e800a4b79f000900e900b5
:1009f00080047800e10f4000f2ff3a000006eb00af
:100a00000d00e0000a003a00c6013700ffb0970071
:100a100000022000ce010700e10f40000300320079
:100a2000afb297008502e800a5b79f000c06e8006a
:100a30006fa89700800f5600f4ff3a00b901370005
:100a40008fb897004100780081bf9f00cf80de0003
:100a500001017800820178000205be000004be009a
:100a60000203be000002be004822de00482edd0068
:100a700004027600e4d79f000d48a3000a0032006c
:100a80000404e00008003200e14f4200060032009a
:100a900071fd2f000180470004487800184098003d
:100aa0002900200002003700f0d79f001900200025
:100ab00072fd2f0002844700a1ff370064fd2f0064
:100ac00004844700190020009dff37000d0cb3007f
:100ad0000d007800000cb20028003a000d00e00084
:100ae00005003d008fba97004505be004504be00d5
:100af00085bf9f00140037000d48a3000b00320093
:100b00000fbe97004c00be008cbf9f004f89de00d7
:100b1000cf91de000002be0002037800820378005d
:100b20000605be000404be00070037008fb897001a
:100b30004100780081bf9f0000047800cfc4de0030
:100b4000090578008a057800e00f5400e08f5c000a
:100b5000e00f5d00e08f5d001f003d003d00b30031
:100b60006000b8006011b800080450008984580083
:100b70000a0559008b855900170037000d00e00069
:100b800005003d000fb997004205be004204be00bb
:100b900082bf9f00100037000d48a30007003200fd
:100ba0000fba97004400be0084bf9f006011b800d8
:100bb0000205be000004be00070037008fba970090
:100bc0004500780085bf9f000004780009002000e0
:100bd0000a0020000b0020003fb697000c00e00048
:100be00007003a00e00f5400e08f5c00e00f5d006a
:100bf000e08f5d0002003a0010002000b0b79f00b7
:100c00008d007800010cb200e1b79f0000042000c5
:100c1000808f50003000320003003c000100e000f3
:100c20000800320040003700000820006fb1970034
:100c3000800f510014003200000c2000800f510082
:100c400039003a0014c0b300a5a720000b003700fc
:100c50000400fb004300dd00050040005001be0021
:100c60004000be000040e10001c8e10002d0e10008
:100c700003d8e1002b0039000442e800f44f520091
:100c8000f3ff3a0027003700000120000100200098
:100c90006011b80014c0b3000040e10001c8e100d9
:100ca00002d0e10003d8e1001e0039004500200019
:100cb0000000d0008180d2000281d2008381d20066
:100cc0008502e900faff3a000442e800f04f5200c2
:100cd000f1ff3a00130037008000200001002000df
:100ce0006011b80014c0b3000040e10001c8e10089
:100cf00002d0e10003d8e1000a0039003c002000e6
:100d00000000d0008180d2000281d2008381d20015
:100d10000c06e900faff3a000442e800f54f5200e1
:100d2000f1ff3a00e4d79f00efd097000100fb00ed
:100d30003fb19700820f500002003d00e2d79f00b4
:100d4000040037003fb29700800f520001003d00c1
:100d5000b0b79f00cfb297000500e000040032005a
:100d600063806600020032008502e900c5b79f007b
:100d70000de8a3000b0032004fb697003fb097007c
:100d8000800f560003003c008000eb00c1b79f00bd
:100d9000040037004fb197003fb2970004015100a3
:100da000c2b79f00efd297000500fb000006eb00e2
:100db000dcaf9f00cfb09700808f5000020034005e
:100dc00000805000d0af9f000d28a30037003200f4
:100dd000e18066000d18a3000c003200d002200054
:100de0000100e00001003a000080e900ffb0970038
:100df000d7000700e10f40000e0032002fb197002e
:100e00000201e800a2b79f000a0037000100e000dd
:100e100008003200ffb0970000022000cc0007005d
:100e2000e10f4000030032002fb297000402e800f7
:100e3000a4b79f00dfaa97000500e0000f00320072
:100e40000006eb00ffb0970000032000c000070081
:100e5000e10f4000030032002fb097000000e800cf
:100e6000a0b79f000c06e800dfa89700810f56008e
:100e7000f4ff3a000001eb00d2af9f003fb29700b1
:100e8000c320dd0020a720008080400091b79f0094
:100e90004220dd006400500080b79f006320b9004d
:100ea000f0af9f006306500084003700dfaa970070
:100eb0000500e00011003200688066000f003a0073
:100ec00000067800ffb0970000022000a000070095
:100ed000e10f4000030032002fb097000000e8004f
:100ee000a0b79f000c06e800dfa89700810f56000e
:100ef000f4ff3a000001eb00d2af9f00e1806600f2
:100f00000d18a3000c003200d00220000100e00008
:100f100001003a000080e900ffb097008c00070054
:100f2000e10f4000d5ff32002fb297000402e80025
:100f3000a4b79f00d1ff37000100e000cfff3200cf
:100f4000ffb097000002200081000700e10f400081
:100f5000caff3200afb297008502e800a5b79f0034
:100f6000c6ff370000042000efb09700808f5000cc
:100f70003100320003003c000100e00008003200b4
:100f80003e003700000820006fb19700800f51002d
:100f900011003200000c2000800f510037003a0091
:100fa0001fb097003002be002003be000800be0044
:100fb0000a01be00d1010700a400200005002000a6
:100fc0006033b800d401070004c3b30004424000fa
:100fd000e4d79f002900370015b22000d5b79f0045
:100fe0000d58a30002003a0020b32000d0b79f00a4
:100ff00014002000050020006033b8008fb0970077
:101000008100e900050033000402d0008582d2008f
:101010000683d2008783d200f9ff37000800be00a4
:101020000a01be00b50107006f0060005fb19700c4
:1010300062407800100037001400200005002000f6
:101040006033b8000c0078000000e90005003300b0
:101050000402d0008582d2000683d2008783d200aa
:10106000f9ff37000800be000a01be00a301070017
:10107000674060000043b000e0d79f00efd09700ca
:101080000100fb00ffb0970031000700e10f4000b6
:10109000030032002fb197000201e800a2b79f00c1
:1010a0001fb297006802520094b79f008fb297005a
:1010b000e482520085b79f0063065600d0ff2f00e0
:1010c0003fb197000090b9007faa9700000042004e
:1010d00063005000800f5600a2ff3a000d38a300b5
:1010e00010003200dfaa97000500e0000d00340078
:1010f0000006eb00ffb0970000022000140007007c
:10110000e10f4000030032002fb097000000e8001c
:10111000a0b79f000c06e800dfa89700810f5600db
:10112000f4ff3a00be407800e1d79f000104e000e0
:101130005dfd3a002fb097004f0778004f06be00c4
:101140004f05be004f04be00ef01b10000000600d5
:10115000889fbe000001780001047800b100900073
:101160000118a300400032000198a30003003a00d8
:10117000180090000000e0003b003a000190a00041
:101180003104980082047800f90fb2001800900032
:101190000000e00002003a0028009000000c7800f7
:1011a000ea8f540006003a00380090000078a3004f
:1011b00003003a0088007800d0002000e4ff070018
:1011c000180290006121b90058009000e8009000da
:1011d000800f5100818f59000b0032000400e8009d
:1011e000100498001800780009587800000c780066
:1011f00011c0b300e0b6200001487800ea8f540027
:101200000600320019003700880078000940780095
:10121000190007008004780014003700380090009f
:101220000088a3001100320018019000a80090006f
:10123000480090005300070098009000810f500074
:1012400004003200380090000003b300300498001e
:101250008084eb000000eb00100498002800900050
:10126000000c7800010037008084eb000900780052
:101270004f04be00000006000200fa00889fbe0076
:10128000a0ff9f0001047800b10090008104780065
:101290000904b200020032000000fb0036003700f3
:1012a0000118a30005003a000103b30031049800bf
:1012b000190498000080eb002f00370058009000c0
:1012c0000000e00006003a004800900012002000f4
:1012d000e68057002b00070019049800240037000f
:1012e000280090000000e00008003a00a0b62000ae
:1012f00020049800000c7800200020005004980082
:10130000100498000130a0003104980018019000ea
:10131000a8009000480090001a00070028009000e4
:10132000000c78000080eb00100498001800780092
:10133000aff8970001587800000c78002ff897005c
:10134000ea4f50000a003a00380090000088a300dd
:101350000700320018019000a8009000480090009b
:101360000800070019049800a8009000010c7800fc
:10137000aff897000100fb004f04be000080fa00a8
:10138000000006000a00fa0080017800e20f500019
:1013900028003e00805b8000e10f50000800320012
:1013a000000020000000e0000500320004002000e2
:1013b00005002000060020008001780004003700ae
:1013c0000422200025222000462220008322200023
:1013d000144090000004e000040035008009eb0098
:1013e000144090000074a000104298001540900036
:1013f0000028a30003003a00154090000024a0003c
:10140000904298008001eb000700370015409000e3
:101410000008a300fdff320063c078000000fb005d
:10142000000b78008301e800828f5100f7ff3a003b
:101430000800370030002000b0bf9f00c3bf9f00ee
:10144000d1bf9f00e2bf9f006a80570000c0da0052
:101450006fb99700020078000080fa0000000600d3
:10146000881f7800000478005001be004000be00d4
:10147000040040008580480006014900878149003a
:10148000009cbe000294be000400e1000588e1005b
:101490000690e1000798e100020031006800440076
:1014a0001008e8004f04780000000600f4874700a9
:1014b000889fbe008a9fbe008c9fbe008e1f780052
:1014c0000205be000004be00d4b79f00e5b79f0030
:1014d000f6b79f0087bf9f000000eb00c0b79f00da
:1014e000b0b79f00a0b79f0090b79f0080b79f0044
:1014f0000d042000bfb097004fb0970000014000de
:101500000000e0000f003d004f08de000000710009
:10151000c0b79f004d00070001003d0012002000f1
:101520005000070001003d00120020005500070098
:1015300061000700660007000f004000c8ff0700b9
:10154000220037004f08de0000067100ccb79f0074
:101550003e00070001003d0012002000410007008e
:1015600001003d0012002000460007005200070065
:101570000fb297009fb297002fb39700bfb39700a9
:10158000590007000000520081805a0002015b00f0
:1015900083815b0080b79f0091b79f00a2b79f0037
:1015a000b3b79f000007eb004f0007000020e100e9
:1015b00001a8e10002b0e10003b8e1000100310040
:1015c0001e0020000e005600c0b79f004fb29700cb
:1015d0000400e0000700350010002000010020009a
:1015e0006011b80008047000898470000a05710059
:1015f0008b8571008d06e900beff3a000400e00013
:1016000003003d00320007000f00400094ff070078
:101610004fa897000000e00004003a000fb49700c4
:101620009fb497002fb59700bfb597000800be0084
:101630000a01be004f0778004f06be004f05be00ee
:101640004f04be004f01b1000000060001804000c1
:1016500090b79f000001eb008fb097000100e00001
:10166000000006000200700090b79f00018040005b
:1016700080b79f000001eb00ffa897000100e00089
:10168000000006000200700080b79f00018040004b
:101690006faa9700cf20de0001007000f0af9f001e
:1016a000040242000800be000a01be004f18de001e
:1016b0000002720000000600e4af9f00080444002e
:1016c00089844c000a054d008b854d000000060002
:1016d0003fb29700cfb297005fb39700efb3970088
:1016e00000fe2f00000006003fb09700cfb097002b
:1016f0005fb19700efb1970000000600881f7800e7
:1017000018002000881f780068ff07008f87e90015
:101710004f04780000000600801feb0063ff070005
:101720008f87e90000000600889fbe008a9fbe00e8
:101730008c1f78000205be000004be00e00f5000c0
:10174000e08f5800e00f5900e08f59000c003d0079
:101750006000b8006011b800080450008984580087
:101760000a0559008b8559001c0020001f00070046
:1017700008003d00180007000006eb0005003700d8
:101780000006eb001900070002003d000f000700f3
:101790001c0020000800be000a01be00d7ff0700a1
:1017a0000203be000002be000c00e0000100320097
:1017b000060007000400be000601be004f067800c8
:1017c0004f05be004f04be00000006006000b800d8
:1017d0006011b800000037000402500085825800f4
:1017e000060359008783590000000600e00f5200ed
:1017f000e08f5a00e00f5b00e08f5b000000060006
:10180000889fbe008a9fbe008c1f78000205be0024
:101810000004be00e00f5000e08f5800e00f5900b8
:10182000e08f59000a003d006000b8006011b80068
:1018300008045000898458000a0559008b85590016
:101840001c0020001800070007003d0005003700bd
:101850000006eb001400070003003d006000b80024
:101860006011b800150007000800be000a01be00a4
:10187000a9ff07000203be000002be000c00e0004a
:10188000030032006000b8006011b8000b000700d0
:101890000400be000601be004f0678004f05be00e2
:1018a0004f04be0000000600e00f5200e08f5a0017
:1018b000e00f5b00e08f5b000000060004025000b8
:1018c00085825800060359008783590000000600ee
:020000040000fa
:0200000401f009
:04000000ffff0000fe
:020000040000fa
:0200000401f009
:04000800ffff0000f6
:020000040000fa
:0200000401f009
:04000c00f8ff0000f9
:020000040000fa
:0200000401f009
:040010007dff000070
:020000040000fa
:0200000401f009
:040014007fff00006a
:020000040000fa
:0200000401f009
:04001800ffff0000e6
:020000040000fa
:0200000401f009
:04001c00ddff000004
:020000040000fa
:100008009402000094020000940200009402000090
:100018009402000094020000940200009402000080
:10002800940200005a150000940200002e160000e9
:1000380094020000c215000094020000940200001f
:10004800940200009402000094020000660f000071
:10005800ce0f00004015000094020000940200003a
:100068009402000094020000940200009402000030
:100078009402000094020000f815000094020000a9
:100088009402000094020000940200009402000010
:100098009402000094020000940200009402000000
:1000a80094020000940200009402000094020000f0
:1000b80094020000940200009402000094020000e0
:1000c80094020000940200009402000094020000d0
:1000d80094020000940200009402000094020000c0
:1000e80094020000940200009402000094020000b0
:1000f80094020000940200009402000094020000a0
:10010800940200009402000094020000940200008f
:10011800940200009402000094020000940200007f
:10012800940200009402000094020000940200006f
:10013800940200009402000094020000940200005f
:10014800940200009402000094020000940200004f
:10015800940200009402000094020000940200003f
:10016800940200009402000094020000940200002f
:10017800940200009402000094020000940200001f
:10018800940200009402000094020000940200000f
:1001980094020000940200009402000094020000ff
:1001a80094020000940200009402000094020000ef
:1001b80094020000940200009402000094020000df
:1001c80094020000940200009402000094020000cf
:1001d80094020000940200009402000094020000bf
:1001e80094020000940200009402000094020000af
:0801f8009402000094020000d3
:020000040000fa
:10020800940200009402000094020000940200008e
:10021800940200009402000094020000940200007e
:10022800940200005a150000940200002e160000e7
:1002380094020000c215000094020000940200001d
:10024800940200009402000094020000660f00006f
:10025800ce0f000040150000940200009402000038
:10026800940200009402000094020000940200002e
:100278009402000094020000f815000094020000a7
:10028800940200009402000094020000940200000e
:1002980094020000940200009402000094020000fe
:1002a80094020000940200009402000094020000ee
:1002b80094020000940200009402000094020000de
:1002c80094020000940200009402000094020000ce
:1002d80094020000940200009402000094020000be
:1002e80094020000940200009402000094020000ae
:1002f800940200009402000094020000940200009e
:10030800940200009402000094020000940200008d
:10031800940200009402000094020000940200007d
:10032800940200009402000094020000940200006d
:10033800940200009402000094020000940200005d
:10034800940200009402000094020000940200004d
:10035800940200009402000094020000940200003d
:10036800940200009402000094020000940200002d
:10037800940200009402000094020000940200001d
:10038800940200009402000094020000940200000d
:1003980094020000940200009402000094020000fd
:1003a80094020000940200009402000094020000ed
:1003b80094020000940200009402000094020000dd
:1003c80094020000940200009402000094020000cd
:1003d80094020000940200009402000094020000bd
:1003e80094020000940200009402000094020000ad
:0803f8009402000094020000d1
:020000040000fa
:1018d000535000004545000044000000203a00003d
:1018e00020540000757200006e2000006f6e000032
:1018f0002074000068650000204c00004544000092
:1019000073200000537000006563000069660000ea
:101910006965000064200000627900002061000019
:10192000204300006f6e0000747200006f6c0000b6
:10193000204e0000756d000062650000720000001e
:10194000a1aa0000a1aa0000a1aa0000a1aa00006b
:10195000204c000045440000204e000020a1000063
:10196000aaa10000aaa10000aaa10000aa0d0000df
:101970000a4600006f750000722000004c45000010
:1019800044730000206f00006e20000074680000a7
:1019900065200000626f000061720000642000009a
:1019a000776900006c6c0000206c00006967000023
:1019b00068740000207400006f200000646900005b
:1019c000737000006c6100007920000074680000f2
:1019d000652000006e7500006d62000065720000f9
:1019e000204e0000206900006e2000006974000095
:1019f00073200000424900004e2000006261000098
:101a000073650000206600006f7200006d610000c9
:101a1000742e00000d0a0000576800006572000077
:101a2000652000004e200000636100006e20000071
:101a300062650000206500006974000068650000b0
:101a4000722000004445000043280000307e000062
:101a500031360000292000006f720000204800008d
:101a600045580000283000007e3900002c4100005d
:101a70007e4600007c6100007e46000029200000b8
:101a80006261000073650000206600006f72000054
:101a90006d610000742e00000d0a00005468000003
:101aa000652000007265000074750000726e000011
:101ab000206d000065730000736100006765000021
:101ac00020730000686f000077730000207400002e
:101ad00068650000206300007572000072650000f8
:101ae0006e740000207300007461000074650000d3
:101af000206f000066200000746800006520000070
:101b0000666f000075720000204c00004544000024
:101b10007328000020230000203d0000204f00001b
:101b20004e3b0000202e0000203d0000204f000012
:101b300046460000290d00000a000000546800001d
:101b400065200000737000006565000064200000df
:101b500069730000202500006420000072700000fe
:101b60006d2e00000d0a00000000000000000000c3
:101b70000000000000000000000000000000000065
:101b80000000000000000000000000000000000055
:101b90000000000000000000000000000000000045
:101ba0000000000000000000000000000000000035
:101bb0000000000000000000000000000000000025
:101bc0000000000000000000000000000000000015
:101bd0002008000000410000204500005252000093
:101be0004f520000204300006f6d00006d61000047
:101bf0006e6400002069000073200000547900002a
:101c00007065000064200000696e0000210d000076
:101c10000a5900006f75000020630000616e00002b
:101c20002054000079700000652000002248000068
:101c3000454c000050220000204300006f6d000062
:101c40006d6100006e640000207400006f200000d1
:101c500053650000652000005768000069630000bc
:101c600068200000436f00006d6d0000616e000091
:101c7000642000006973000020560000616c0000c1
:101c8000696400002e0d00000a00000045520000ab
:101c9000524f0000522000004172000067750000a2
:101ca0006d6500006e74000073200000617200001a
:101cb0006520000054790000706500006420000079
:101cc000696e0000206600006f7200002043000073
:101cd0006f6d00006d6100006e6400002022000046
:101ce00000220000210d00000a5900006f7500005d
:101cf00020630000616e0000205400007970000035
:101d00006520000022480000454c000050200000e3
:101d100000220000204300006f6d00006d61000094
:101d20006e640000207400006f2000005365000006
:101d300065200000486f000077200000746f0000ed
:101d400020550000736500002074000068690000e1
:101d500073200000436f00006d6d0000616e000095
:101d6000642e00000d0a0000000d00000a000000b3
:101d700057410000524e0000494e0000472100002c
:101d800020520000585f00004275000066660000a7
:101d900065720000204a0000757300007420000086
:101da0004f76000065720000666c00006f770000df
:101db0006564000021200000412000004c6100000b
:101dc000726700006572000020520000585f00003a
:101dd0004275000066660000657200002069000020
:101de00073200000526500007175000069720000e8
:101df0006564000021000000546f00006f200000a7
:101e00004c6f00006e6700002054000065780000f1
:101e10007421000020410000204c0000617200008d
:101e20006765000072200000545800005f42000007
:101e3000554600004645000052200000697300002e
:101e40002052000065710000756900007265000095
:101e5000642100000d0a0000004100002042000043
:101e60006c6f0000636b0000204a00007573000077
:101e7000742000004f630000637500007272000060
:101e80006564000021200000412000004c6100003a
:101e9000726700006572000020540000585f000067
:101ea00042550000464600004552000020690000ef
:101eb0007320000052650000717500006972000017
:0c1ec00065640000210d00000a00000015
:020000040000fa
:101ecc003600f800809fbe00829fbe00849fbe003b
:101edc00869fbe000200fa000000eb00000f7800a5
:101eec0022c2bf00614060000004e0001f0032000d
:101efc0030118000000f7800b04080009e00780008
:101f0c00da010700d00020009e0f10000a003a00f2
:101f1c00b0408000a1002000d4010700b040800038
:101f2c008000eb00790107000a050700b040800033
:101f3c00be01070003003700b04080009e0078000f
:101f4c0072010700800020009e0f100007003a006d
:101f5c00b04080002200200081de2800e60107004e
:101f6c00b040800021002000980107002222a90027
:101f7c008560a9000080fa004f03be004f02be002e
:101f8c004f01be004f00be003600f90000400600b5
:101f9c003600f800809fbe00829fbe00849fbe006a
:101fac00869fbe000000fa00b04080008000eb006d
:101fbc006d020700b04080009c0207000000e000aa
:101fcc00010032009580a9008580a9000080fa00ec
:101fdc004f03be004f02be004f01be004f00be00bb
:101fec003600f900004006000000fa0060022000f4
:101ffc00303a880044c7bf00f043b20044e7b70052
:10200c00417420009140780000ceb30000c0600005
:10201c0044e7b7000000eb00403a880040a7a90055
:10202c001200200081072000a0092000337420003a
:10203c00814978008049780082497800120020009c
:10204c006104200070052000237420008149780071
:10205c00804978008249780043c7bf000047b2002e
:10206c00f04f5000fcff3a0042c7bf000042b200e4
:10207c000004e000fcff32000080fa0000000600c3
:10208c000000fa008081200010010700b040880099
:10209c00516d20009140780000ceb30000c060006c
:1020ac003040b300d5e6b700416a2000914078007b
:1020bc0000ceb30000c060004041b300a4e6b700fe
:1020cc0021e2a90021a2a9002182a9002162a90074
:1020dc001122200091407800c0cfb30000c06000f6
:1020ec0021e2b70020e2a90020c2a90020a2a90089
:1020fc002082a9002062a9000122200091407800d2
:10210c0090cfb30000c0600020e2b7002002a9000d
:10211c00000f20004011880023e2a80023c2a90070
:10212c0023a2a9002362a9002322a9002302a9004b
:10213c0022c2bf00f043b20022e2b70022a2a900e3
:10214c002282a9002262a9002242a9002222a9000f
:10215c002202a9008580a9009580a8008560a900ad
:10216c009560a80021e2a8002382a8002342a800c1
:10217c000080fa00000006000200fa009aff070037
:10218c00bfff0700011680000010200000807000c7
:10219c0000168800401680000040a0004016880001
:1021ac0096000700e16820009140780000ceb30053
:1021bc0000c060000004a0008ee6b700f1682000ab
:1021cc009140780000ceb30000c060000014a00065
:1021dc008fe6b700416920009140780000ceb30033
:1021ec0000c060003040b30094e6b7007a000700ee
:1021fc00080407004b040700410407000000eb0033
:10220c0030408800170407002b0407000028a800a2
:10221c000000eb00000f7800010037001e0fe800f3
:10222c00703e20009e0f1000fcff36001900370096
:10223c00cac2bf00704060000004e00014003a0005
:10224c0002003700a000200051000700cac2bf00e6
:10225c00704060000004e000faff32000040800093
:10226c000000d100614060000004a20061406000e9
:10227c000080fb0061006000000140000140800014
:10228c00d0ff2f000080600002007000004088002a
:10229c0000000000c3c2bf00614060000004e00009
:1022ac00e3ff3a0002003700a000200038000700ce
:1022bc00c3c2bf00614060000004e000faff3200be
:1022cc00501680000000d1006700600010408800ac
:1022dc0000408000620060000000e0000700320057
:1022ec001040800080004000e0a1200000804000f1
:1022fc0010007800a00e8800060037001040800007
:10230c0080004000e0a22000008040001000780017
:10231c00a00e880070772000400e88000008a800ee
:10232c0013e1a80010c0b30008e8b7004006200075
:10233c001700070011003700c3c2bf0061406000e6
:10234c000004e0000c003a0000702000400e8800f1
:10235c000000eb00a00e88000008a9000200370066
:10236c00a00020000a000700c3c2bf00614060004b
:10237c000004e000faff3200000000000040800082
:10238c00610060000000e000ebff3a00c1ff370085
:10239c000400fa0010079800070037000000eb005b
:1023ac00000f7800010037001e0fe800301f2000de
:1023bc009e0f1000fcff36001e0090000000e9008c
:1023cc00100798001e009000e10f4000f3ff3a0048
:1023dc000080fa00000006000000fa0021742000c2
:1023ec00620420007305200082487800834878003e
:1023fc0042c7a8000080fa00000006000000fa00a6
:10240c0021742000620420007305200082487800ab
:10241c008348780042c7a9000080fa00000006003b
:10242c001a00fa00300f98000000eb00000f780043
:10243c008e80e8003e08900023030700000f780010
:10244c001e007800400f98004e089000e40f4000ea
:10245c00080032004e089000e10f400001003200ed
:10246c0013003700b0408000b1de2800d300070015
:10247c000f003700b040800061e42800cf00070057
:10248c00b04080008e80e800cc000700b040800097
:10249c0011e72800c9000700b04080008e80e800da
:1024ac00c6000700b040800091e82800c300070078
:1024bc00b04080002200200051eb28008e00070065
:1024cc000000eb000080fa00000006000400fa0097
:1024dc00100798001e009000000f78009e007800f6
:1024ec000000eb0080009a009e0078000000eb00da
:1024fc0090009a009e0078000000eb00a0009a006b
:10250c001e0078000080fa00000006000800fa00a7
:10251c0010079800210798001e009000000f78000b
:10252c001e007800000092009e0078000000400021
:10253c002e01900002b078001e007800000092007e
:10254c008000e8001e00780001009a001e00780050
:10255c008000920000082000808f500006003a0096
:10256c0081eb28001e007800940007000080eb002f
:10257c0030079800020037000001eb00320798008a
:10258c003e0090000080fa00000006000400fa00f3
:10259c00100798001e009000000f78001e007800b5
:1025ac00000092000000e000050032001e007800e0
:1025bc00000092008000e9001e00780001009a00e3
:1025cc000000eb000080fa00000006000800fa0092
:1025dc0020079800310798002e00900010079800f3
:1025ec000000eb00000f78000a0037001e0090007e
:1025fc00000092000000e000090032001e00900074
:10260c00000092008000e9001e00900001009a007a
:10261c001e0fe8003e0090009e0f1000f3ff3500e7
:10262c000000eb000080fa00000006000400fa0035
:10263c00100798001e009000000f78009e00780094
:10264c000000eb0080009a000080fa0000000600f9
:10265c000400fa00100798001e009000000f78008c
:10266c001e0078000080fa00000006000600fa0048
:10267c0010079800210798001e009000000f7800aa
:10268c00110020001e007800820007001e00780058
:10269c002000920002082000110009000200d8005e
:1026ac008000fd009e007800000040000010b0008b
:1026bc002e01900002b078001e00780020009200dd
:1026cc008000e8001e00780021009a0023c2bf00a1
:1026dc00614060000004e000030032008000eb0069
:1026ec001e007800a00007009580a8000000eb00f9
:1026fc000080fa00000006000a00fa00200798008b
:10270c0031079800420798002e009000100798009f
:10271c00ce0090001e0090005e0007000000eb0051
:10272c00000f7800170037001e0090002000920068
:10273c0002082000110009000200d8008000fd00f2
:10274c00800178001e007800800078003e00900028
:10275c0000804000104078000001fb009e009000bb
:10276c00038041000010b00002b078001e00900001
:10277c00200092008000e8001e00900021009a00ca
:10278c001e0fe8004e0090009e0f1000e6ff350073
:10279c0023c2bf00614060000004e000030032006f
:1027ac008000eb001e0090006f0007009580a800d1
:1027bc000000eb000080fa00000006000a00fa009e
:1027cc0020079800310798002e0090001007980001
:1027dc003e009000000f78003e00900087f7070045
:1027ec00800078001e0090002a000700e20f4000d5
:1027fc0017003a000080eb004007980022003700d9
:10280c001e00900020009200020820001100090018
:10281c000200d8008000fd00800078001e007800c7
:10282c00104078008001fb001e01900001804000e8
:10283c000010b000033079001e00900020009200c0
:10284c008000e8001e00900021009a001e0fe80096
:10285c001e007800104078000004e000e8ff3a0009
:10286c0023c2bf00614060000004e000030032009e
:10287c008000eb001e0090003b0007009580a80034
:10288c000000eb00400798004e0090000080fa001a
:10289c00000006000800fa001007980021079800b5
:1028ac001e009000000f7800ae0090000008200081
:1028bc00808f500006003400c1ef28001e00780005
:1028cc00beff0700e0ff2f00300798002300370001
:1028dc001e007800a00092002e0090008080400026
:1028ec001e007800100092000008b000808f50008d
:1028fc00180035001e0078002000920041032000d3
:10290c00808040001e007800100092000008b0008b
:10291c00808f5000f7ff3200d1f228001e007800a3
:10292c00a6ff07001e007800a00092002e00900069
:10293c00808040001e007800100092000008b0005b
:10294c00808f5000f7ff32000080eb0030079800ba
:10295c00020037000000eb00300798003e009000aa
:10296c000080fa00000006000800fa00200798001a
:10297c00310798002e009000100798003e00900040
:10298c00640f10001d0037001e0090001000920014
:10299c009e009000000040000010b00060807800a5
:1029ac00201188001e009000100092008000e800aa
:1029bc001e00900011009a001e00900090009200e2
:1029cc00f0072000808f50000c0034001e00900097
:1029dc009000920000f82f00808040001e009000b4
:1029ec0011009a001e009000a000920000f82f0029
:1029fc00808040001e00900021009a001e0fe9000c
:102a0c001e00e000060035001e00900090009200b1
:102a1c001e00900020009200808f5000daff3500dd
:102a2c000000eb000080fa00000006000600fa002f
:102a3c00100798001e009000000f78001e00780010
:102a4c00900092001e00780020009200808f5000b1
:102a5c0003003a0010002000200798000200370005
:102a6c000000eb00200798002e0090000080fa0078
:102a7c0000000600801f78000000fa000040800073
:102a8c00610060000000e0000300320000188000cc
:102a9c004200dd00a053880085a0a9000080fa0048
:102aac004f00780000400600809fbe000200fa0034
:102abc008420a900501680000000d100670060003f
:102acc001040880000408000620060000000e000c0
:102adc00090032001040800080004000e0a120007e
:102aec000080400010007800a00e880050002000ec
:102afc00000f780008003700104080008000400074
:102b0c00e0a220000080400010007800a00e880099
:102b1c0040002000000f78009e00780010408000dc
:102b2c00808f500011003a0008c8bf000040e80038
:102b3c0008e8b70008c8bf00e64f50000b003a0089
:102b4c0050088000204088000000eb0050088800ee
:102b5c003140800020408000008040000000d10007
:102b6c003040880010c0b30008e8b7000080fa00bd
:102b7c004f00be0000400600809fbe000000fa001f
:102b8c0084a0a900501680000000d10067006000ee
:102b9c001040880000408000620060000000e000ef
:102bac00070032001040800080004000e0a12000af
:102bbc000080400010007800a00e8800060037004e
:102bcc001040800080004000e0a220000080400007
:102bdc0010007800a00e88000080fa004f00be00a4
:102bec0000400600809fbe000000fa0086c0a900cd
:102bfc00501680000000d100670060001040880073
:102c0c0000408000620060000000e000070032001d
:102c1c001040800080004000e0a1200000804000b7
:102c2c0010007800a00e88000600370010408000cd
:102c3c0080004000e0a220000080400010007800de
:102c4c00a00e88000080fa004f00be000040060075
:102c5c003600f800809fbe00829fbe00849fbe009d
:102c6c00869fbe00889fbe000000fa0030408000a6
:102c7c000000e8006101b80060342c003102200033
:102c8c0028f60700b0538800a1538000b053800091
:102c9c0000805000c0538800705280006104b8005e
:102cac00c05380006103b9008800780006007800ea
:102cbc00000ab80007c0b900050178000001410006
:102ccc0009b0b90000014100820278004129dd0001
:102cdc004f20de0000007100cfa8de00cf80de00a8
:102cec003052880041528800805280006104b80044
:102cfc00c05380006103b90088007800060078009a
:102d0c00000ab80007c0b9000501780000014100b5
:102d1c0009b0b90000014100820278004129dd00b0
:102d2c004f20de0000007100cfa8de006101b90069
:102d3c001052800021528000020040008380480025
:102d4c00f051880001528800f0518000015280003f
:102d5c00e00f5000e08f580004003d006000b80008
:102d6c00f0518800015288000b003700f2518000ae
:102d7c0003528000f0ff270001002000800f51005b
:102d8c00818f590004003400f0ff2700010020005f
:102d9c00f051880001528800f051800001528000ef
:102dac001052880021528800f2518000035280009a
:102dbc003052800041528000020040008380480065
:102dcc00505288006152880050528000615280003d
:102ddc00e00f5000e08f580004003d006000b80088
:102dec0050528800615288000b003700525280000c
:102dfc0063528000f0ff270001002000800f51007b
:102e0c00818f590004003400f0ff270001002000de
:102e1c005052880061528800200e80000000400053
:102e2c006104b80056528000675280008800780018
:102e3c0006007800000ab80007c0b9000501780048
:102e4c000001410009b0b900000141008202780084
:102e5c004129dd004f20de0000007100cfa8de000c
:102e6c00b00e8800b00e8000c00e8800b00e80003e
:102e7c00d00e88008460a9000080fa004f04be00c8
:102e8c004f03be004f02be004f01be004f00be00fc
:082e9c003600f90000400600b9
:020000040000fa
:102ea4003e0a0000140000000200000000000000c0
:102eb400000000000000000000000000000000000e
:102ec40000204e00d0070000740a00000600000035
:102ed400000000001e0a00002000000002000000a4
:102ee4000000100002042000040201000810080081
:102ef400012000000000000001201000080108006b
:102f04000402040020100200000000000008000079
:102f14001e02000000000000640a0000100000000f
:102f240002000000688cb000196e8c00a08c0000b8
:102f3400000000000000000000000000520a000031
:102f440012000000000000007a0a0000a000000047
:102f540002000000010000000000000000000a0060
:102f640000000000000000000064000000000000f9
:102f740000000000e8030000000000000000100052
:102f8400270000000000000000a0860001000000ef
:102f94000000000040420f0000000000000080001c
:102fa40096980000000000000000e100f505000014
:102fb4000000000000ca9a003b000000000000006e
:102fc400e40b5400020000000000e80076481700fb
:102fd400000000000010a500d4e80000000000007c
:102fe400a0724e0018090000000040007a10f3009f
:102ff4005a0000000080c600a47e8d00030000007b
:1030040000c16f00f2862300000000008a5d780092
:103014004563010000006400a7b3b600e00d0000a2
:1030240000e889000423c7008a0000001a0b00008e
:103034002a00000002000000286e75006c6c290054
:10304400003031003233340035363700383941002e
:1030540042434400454600003031320033343500e9
:103064003637380039616200636465006600000029
:10307400440b00002600000002000000460b6c0018
:103084000b0000006c0b09000000000002006a0045
:103094000b0000006a0b06000201000000000000a3
:1030a4000000000000000600020200000000000012
:1030b4006a0b00000600000000000000700b000016
:1030c40002000000020000000100000000000000f7
:020000040000fa
:1030d4000e00fa00400798005107980010c0b30092
:1030e400204798000000eb00200798004e00900055
:1030f40030079800240037003e009000904078008c
:1031040000c2b30080cf500006003a003e00900099
:103114008040eb000148780010c0b30020479800bd
:10312400160037002e4090000080fb000000e000f5
:10313400120032002e009000e70f50000c003e00f9
:103144002e0090008000400020a520000080400058
:10315400be009000010878002e0090000000e800f6
:10316400200798000040eb00204798000300370038
:10317400e0ff2f0060079800250037003e00900014
:103184000000e800300798003e00900010407800ee
:103194000004e000d8ff3a002e0090000000e00098
:1031a4001900320040a62000000f780012003700fa
:1031b4001e007800900078009052800001f507000e
:1031c4000000e0000a003a00915280005e00900086
:1031d40004f507001e007800100190002e009000f6
:1031e40021a52000020001006007980008003700b4
:1031f4009e007800688f40001e0078001000780060
:103204000000e000eaff3a000080eb00600798004d
:103214006e0090000080fa00000006000000fa0032
:103224000080eb00601988002d03a900c00620006f
:10323400001988002143a9000000eb001019880040
:10324400f0322000201988000000eb00801988006b
:10325400800020004019880085a0a90095a0a8003e
:1032640021e3a8000080fa00000006000000fa0034
:10327400f00f2000200e880000702000400e88000f
:103284000000eb00a00e880040062000b00e88006d
:1032940040062000c00e880040062000d00e8800a2
:1032a400200e8000300e880000f02000500e8800b0
:1032b40000002800000e88000080fa0000000600cc
:1032c4000000fa0040168000e000b30040168800b9
:1032d40010002000100a880010002000300a880026
:1032e40010002000d00a88008420a90084a0a9002e
:1032f40086c0a9009420a80094a0a80096c0a800a5
:103304000080fa00000006000000fa00000320001c
:10331400900888000000eb00500888000080eb0053
:10332400700888000080fa00000006000000fa001f
:1033340000022800200888000000eb000008880034
:10334400c00920001008880005e1a8008460a900d5
:103354009460a8000080fa00000006003200fa0021
:1033640050db2800104f78000e00e8001203200004
:103374008000eb008cf40700b0538000801f7800bd
:10338400e0d92800801f78000e007800a3f407001d
:10339400e4875700b04080008e00780009fd0700e4
:0c33a4000000eb000080fa0000000600b2
:00000001FF
